{
	"contracts/solidity-example/03_Primitives.sol": {
		"Primitives_data_type": {
			"abi": [
				{
					"inputs": [],
					"name": "a1",
					"outputs": [
						{
							"internalType": "address",
							"name": "",
							"type": "address"
						}
					],
					"stateMutability": "view",
					"type": "function"
				},
				{
					"inputs": [],
					"name": "addr",
					"outputs": [
						{
							"internalType": "address",
							"name": "",
							"type": "address"
						}
					],
					"stateMutability": "view",
					"type": "function"
				},
				{
					"inputs": [],
					"name": "b",
					"outputs": [
						{
							"internalType": "bool",
							"name": "",
							"type": "bool"
						}
					],
					"stateMutability": "view",
					"type": "function"
				},
				{
					"inputs": [],
					"name": "b1",
					"outputs": [
						{
							"internalType": "bytes1",
							"name": "",
							"type": "bytes1"
						}
					],
					"stateMutability": "view",
					"type": "function"
				},
				{
					"inputs": [],
					"name": "b2",
					"outputs": [
						{
							"internalType": "bytes32",
							"name": "",
							"type": "bytes32"
						}
					],
					"stateMutability": "view",
					"type": "function"
				},
				{
					"inputs": [],
					"name": "bb",
					"outputs": [
						{
							"internalType": "bytes1",
							"name": "",
							"type": "bytes1"
						}
					],
					"stateMutability": "view",
					"type": "function"
				},
				{
					"inputs": [],
					"name": "i16n",
					"outputs": [
						{
							"internalType": "int16",
							"name": "",
							"type": "int16"
						}
					],
					"stateMutability": "view",
					"type": "function"
				},
				{
					"inputs": [],
					"name": "i16p",
					"outputs": [
						{
							"internalType": "int16",
							"name": "",
							"type": "int16"
						}
					],
					"stateMutability": "view",
					"type": "function"
				},
				{
					"inputs": [],
					"name": "i8n",
					"outputs": [
						{
							"internalType": "int8",
							"name": "",
							"type": "int8"
						}
					],
					"stateMutability": "view",
					"type": "function"
				},
				{
					"inputs": [],
					"name": "i8p",
					"outputs": [
						{
							"internalType": "int8",
							"name": "",
							"type": "int8"
						}
					],
					"stateMutability": "view",
					"type": "function"
				},
				{
					"inputs": [],
					"name": "u16",
					"outputs": [
						{
							"internalType": "uint16",
							"name": "",
							"type": "uint16"
						}
					],
					"stateMutability": "view",
					"type": "function"
				},
				{
					"inputs": [],
					"name": "u8",
					"outputs": [
						{
							"internalType": "uint8",
							"name": "",
							"type": "uint8"
						}
					],
					"stateMutability": "view",
					"type": "function"
				}
			],
			"devdoc": {
				"kind": "dev",
				"methods": {},
				"version": 1
			},
			"evm": {
				"assembly": "    /* \"contracts/solidity-example/03_Primitives.sol\":58:1014  contract Primitives_data_type {... */\n  mstore(0x40, 0x80)\n    /* \"contracts/solidity-example/03_Primitives.sol\":358:364  2**8-1 */\n  0xff\n    /* \"contracts/solidity-example/03_Primitives.sol\":340:364  uint8 public u8 = 2**8-1 */\n  0x00\n  exp(0x0100, 0x01)\n  dup2\n  sload\n  dup2\n  0xff\n  mul\n  not\n  and\n  swap1\n  dup4\n  0xff\n  and\n  mul\n  or\n  swap1\n  sstore\n  pop\n    /* \"contracts/solidity-example/03_Primitives.sol\":390:397  2**16-1 */\n  0xffff\n    /* \"contracts/solidity-example/03_Primitives.sol\":370:397  uint16 public u16 = 2**16-1 */\n  0x00\n  exp(0x0100, 0x02)\n  dup2\n  sload\n  dup2\n  0xffff\n  mul\n  not\n  and\n  swap1\n  dup4\n  0xffff\n  and\n  mul\n  or\n  swap1\n  sstore\n  pop\n    /* \"contracts/solidity-example/03_Primitives.sol\":514:520  2**7-1 */\n  0x7f\n    /* \"contracts/solidity-example/03_Primitives.sol\":496:520  int8 public i8p = 2**7-1 */\n  0x00\n  exp(0x0100, 0x04)\n  dup2\n  sload\n  dup2\n  0xff\n  mul\n  not\n  and\n  swap1\n  dup4\n  0x00\n  signextend\n  0xff\n  and\n  mul\n  or\n  swap1\n  sstore\n  pop\n    /* \"contracts/solidity-example/03_Primitives.sol\":544:553  -(2**7-1) */\n  0xffffffffffffffffffffffffffffffffffffffffffffffffffffffffffffff81\n    /* \"contracts/solidity-example/03_Primitives.sol\":526:553  int8 public i8n = -(2**7-1) */\n  0x00\n  exp(0x0100, 0x05)\n  dup2\n  sload\n  dup2\n  0xff\n  mul\n  not\n  and\n  swap1\n  dup4\n  0x00\n  signextend\n  0xff\n  and\n  mul\n  or\n  swap1\n  sstore\n  pop\n    /* \"contracts/solidity-example/03_Primitives.sol\":580:587  2**15-1 */\n  0x7fff\n    /* \"contracts/solidity-example/03_Primitives.sol\":560:587  int16 public i16p = 2**15-1 */\n  0x00\n  exp(0x0100, 0x06)\n  dup2\n  sload\n  dup2\n  0xffff\n  mul\n  not\n  and\n  swap1\n  dup4\n  0x01\n  signextend\n  0xffff\n  and\n  mul\n  or\n  swap1\n  sstore\n  pop\n    /* \"contracts/solidity-example/03_Primitives.sol\":613:623  -(2**15-1) */\n  0xffffffffffffffffffffffffffffffffffffffffffffffffffffffffffff8001\n    /* \"contracts/solidity-example/03_Primitives.sol\":593:623  int16 public i16n = -(2**15-1) */\n  0x00\n  exp(0x0100, 0x08)\n  dup2\n  sload\n  dup2\n  0xffff\n  mul\n  not\n  and\n  swap1\n  dup4\n  0x01\n  signextend\n  0xffff\n  and\n  mul\n  or\n  swap1\n  sstore\n  pop\n    /* \"contracts/solidity-example/03_Primitives.sol\":738:780  0x5B38Da6a701c568545dCfcB03FcB875f56beddC4 */\n  0x5b38da6a701c568545dcfcb03fcb875f56beddc4\n    /* \"contracts/solidity-example/03_Primitives.sol\":718:780  address public a1 = 0x5B38Da6a701c568545dCfcB03FcB875f56beddC4 */\n  0x01\n  exp(0x0100, 0x00)\n  dup2\n  sload\n  dup2\n  0xffffffffffffffffffffffffffffffffffffffff\n  mul\n  not\n  and\n  swap1\n  dup4\n  0xffffffffffffffffffffffffffffffffffffffff\n  and\n  mul\n  or\n  swap1\n  sstore\n  pop\n    /* \"contracts/solidity-example/03_Primitives.sol\":896:900  0xff */\n  0xff\n    /* \"contracts/solidity-example/03_Primitives.sol\":879:900  bytes1 public b1=0xff */\n  0xf8\n  shl\n  0x01\n  exp(0x0100, 0x15)\n  dup2\n  sload\n  dup2\n  0xff\n  mul\n  not\n  and\n  swap1\n  dup4\n  0xf8\n  shr\n  mul\n  or\n  swap1\n  sstore\n  pop\n    /* \"contracts/solidity-example/03_Primitives.sol\":58:1014  contract Primitives_data_type {... */\n  callvalue\n  dup1\n  iszero\n  tag_1\n  jumpi\n  0x00\n  dup1\n  revert\ntag_1:\n  pop\n  dataSize(sub_0)\n  dup1\n  dataOffset(sub_0)\n  0x00\n  codecopy\n  0x00\n  return\nstop\n\nsub_0: assembly {\n        /* \"contracts/solidity-example/03_Primitives.sol\":58:1014  contract Primitives_data_type {... */\n      mstore(0x40, 0x80)\n      callvalue\n      dup1\n      iszero\n      tag_1\n      jumpi\n      0x00\n      dup1\n      revert\n    tag_1:\n      pop\n      jumpi(tag_2, lt(calldatasize, 0x04))\n      shr(0xe0, calldataload(0x00))\n      dup1\n      0x67fcc138\n      gt\n      tag_15\n      jumpi\n      dup1\n      0x67fcc138\n      eq\n      tag_9\n      jumpi\n      dup1\n      0x767800de\n      eq\n      tag_10\n      jumpi\n      dup1\n      0xab3a58a3\n      eq\n      tag_11\n      jumpi\n      dup1\n      0xcfee9f8b\n      eq\n      tag_12\n      jumpi\n      dup1\n      0xee495002\n      eq\n      tag_13\n      jumpi\n      dup1\n      0xfb2d288d\n      eq\n      tag_14\n      jumpi\n      jump(tag_2)\n    tag_15:\n      dup1\n      0x0a6b4e06\n      eq\n      tag_3\n      jumpi\n      dup1\n      0x0a9ae69d\n      eq\n      tag_4\n      jumpi\n      dup1\n      0x0add6ef2\n      eq\n      tag_5\n      jumpi\n      dup1\n      0x119552a1\n      eq\n      tag_6\n      jumpi\n      dup1\n      0x27ae3f34\n      eq\n      tag_7\n      jumpi\n      dup1\n      0x4df7e3d0\n      eq\n      tag_8\n      jumpi\n    tag_2:\n      0x00\n      dup1\n      revert\n        /* \"contracts/solidity-example/03_Primitives.sol\":370:397  uint16 public u16 = 2**16-1 */\n    tag_3:\n      tag_16\n      tag_17\n      jump\t// in\n    tag_16:\n      mload(0x40)\n      tag_18\n      swap2\n      swap1\n      tag_19\n      jump\t// in\n    tag_18:\n      mload(0x40)\n      dup1\n      swap2\n      sub\n      swap1\n      return\n        /* \"contracts/solidity-example/03_Primitives.sol\":832:848  bytes1 public bb */\n    tag_4:\n      tag_20\n      tag_21\n      jump\t// in\n    tag_20:\n      mload(0x40)\n      tag_22\n      swap2\n      swap1\n      tag_23\n      jump\t// in\n    tag_22:\n      mload(0x40)\n      dup1\n      swap2\n      sub\n      swap1\n      return\n        /* \"contracts/solidity-example/03_Primitives.sol\":914:931  bytes32 public b2 */\n    tag_5:\n      tag_24\n      tag_25\n      jump\t// in\n    tag_24:\n      mload(0x40)\n      tag_26\n      swap2\n      swap1\n      tag_27\n      jump\t// in\n    tag_26:\n      mload(0x40)\n      dup1\n      swap2\n      sub\n      swap1\n      return\n        /* \"contracts/solidity-example/03_Primitives.sol\":718:780  address public a1 = 0x5B38Da6a701c568545dCfcB03FcB875f56beddC4 */\n    tag_6:\n      tag_28\n      tag_29\n      jump\t// in\n    tag_28:\n      mload(0x40)\n      tag_30\n      swap2\n      swap1\n      tag_31\n      jump\t// in\n    tag_30:\n      mload(0x40)\n      dup1\n      swap2\n      sub\n      swap1\n      return\n        /* \"contracts/solidity-example/03_Primitives.sol\":593:623  int16 public i16n = -(2**15-1) */\n    tag_7:\n      tag_32\n      tag_33\n      jump\t// in\n    tag_32:\n      mload(0x40)\n      tag_34\n      swap2\n      swap1\n      tag_35\n      jump\t// in\n    tag_34:\n      mload(0x40)\n      dup1\n      swap2\n      sub\n      swap1\n      return\n        /* \"contracts/solidity-example/03_Primitives.sol\":200:213  bool public b */\n    tag_8:\n      tag_36\n      tag_37\n      jump\t// in\n    tag_36:\n      mload(0x40)\n      tag_38\n      swap2\n      swap1\n      tag_39\n      jump\t// in\n    tag_38:\n      mload(0x40)\n      dup1\n      swap2\n      sub\n      swap1\n      return\n        /* \"contracts/solidity-example/03_Primitives.sol\":526:553  int8 public i8n = -(2**7-1) */\n    tag_9:\n      tag_40\n      tag_41\n      jump\t// in\n    tag_40:\n      mload(0x40)\n      tag_42\n      swap2\n      swap1\n      tag_43\n      jump\t// in\n    tag_42:\n      mload(0x40)\n      dup1\n      swap2\n      sub\n      swap1\n      return\n        /* \"contracts/solidity-example/03_Primitives.sol\":630:649  address public addr */\n    tag_10:\n      tag_44\n      tag_45\n      jump\t// in\n    tag_44:\n      mload(0x40)\n      tag_46\n      swap2\n      swap1\n      tag_31\n      jump\t// in\n    tag_46:\n      mload(0x40)\n      dup1\n      swap2\n      sub\n      swap1\n      return\n        /* \"contracts/solidity-example/03_Primitives.sol\":340:364  uint8 public u8 = 2**8-1 */\n    tag_11:\n      tag_47\n      tag_48\n      jump\t// in\n    tag_47:\n      mload(0x40)\n      tag_49\n      swap2\n      swap1\n      tag_50\n      jump\t// in\n    tag_49:\n      mload(0x40)\n      dup1\n      swap2\n      sub\n      swap1\n      return\n        /* \"contracts/solidity-example/03_Primitives.sol\":496:520  int8 public i8p = 2**7-1 */\n    tag_12:\n      tag_51\n      tag_52\n      jump\t// in\n    tag_51:\n      mload(0x40)\n      tag_53\n      swap2\n      swap1\n      tag_43\n      jump\t// in\n    tag_53:\n      mload(0x40)\n      dup1\n      swap2\n      sub\n      swap1\n      return\n        /* \"contracts/solidity-example/03_Primitives.sol\":879:900  bytes1 public b1=0xff */\n    tag_13:\n      tag_54\n      tag_55\n      jump\t// in\n    tag_54:\n      mload(0x40)\n      tag_56\n      swap2\n      swap1\n      tag_23\n      jump\t// in\n    tag_56:\n      mload(0x40)\n      dup1\n      swap2\n      sub\n      swap1\n      return\n        /* \"contracts/solidity-example/03_Primitives.sol\":560:587  int16 public i16p = 2**15-1 */\n    tag_14:\n      tag_57\n      tag_58\n      jump\t// in\n    tag_57:\n      mload(0x40)\n      tag_59\n      swap2\n      swap1\n      tag_35\n      jump\t// in\n    tag_59:\n      mload(0x40)\n      dup1\n      swap2\n      sub\n      swap1\n      return\n        /* \"contracts/solidity-example/03_Primitives.sol\":370:397  uint16 public u16 = 2**16-1 */\n    tag_17:\n      0x00\n      0x02\n      swap1\n      sload\n      swap1\n      0x0100\n      exp\n      swap1\n      div\n      0xffff\n      and\n      dup2\n      jump\t// out\n        /* \"contracts/solidity-example/03_Primitives.sol\":832:848  bytes1 public bb */\n    tag_21:\n      0x01\n      0x14\n      swap1\n      sload\n      swap1\n      0x0100\n      exp\n      swap1\n      div\n      0xf8\n      shl\n      dup2\n      jump\t// out\n        /* \"contracts/solidity-example/03_Primitives.sol\":914:931  bytes32 public b2 */\n    tag_25:\n      sload(0x02)\n      dup2\n      jump\t// out\n        /* \"contracts/solidity-example/03_Primitives.sol\":718:780  address public a1 = 0x5B38Da6a701c568545dCfcB03FcB875f56beddC4 */\n    tag_29:\n      0x01\n      0x00\n      swap1\n      sload\n      swap1\n      0x0100\n      exp\n      swap1\n      div\n      0xffffffffffffffffffffffffffffffffffffffff\n      and\n      dup2\n      jump\t// out\n        /* \"contracts/solidity-example/03_Primitives.sol\":593:623  int16 public i16n = -(2**15-1) */\n    tag_33:\n      0x00\n      0x08\n      swap1\n      sload\n      swap1\n      0x0100\n      exp\n      swap1\n      div\n      0x01\n      signextend\n      dup2\n      jump\t// out\n        /* \"contracts/solidity-example/03_Primitives.sol\":200:213  bool public b */\n    tag_37:\n      0x00\n      dup1\n      sload\n      swap1\n      0x0100\n      exp\n      swap1\n      div\n      0xff\n      and\n      dup2\n      jump\t// out\n        /* \"contracts/solidity-example/03_Primitives.sol\":526:553  int8 public i8n = -(2**7-1) */\n    tag_41:\n      0x00\n      0x05\n      swap1\n      sload\n      swap1\n      0x0100\n      exp\n      swap1\n      div\n      0x00\n      signextend\n      dup2\n      jump\t// out\n        /* \"contracts/solidity-example/03_Primitives.sol\":630:649  address public addr */\n    tag_45:\n      0x00\n      0x0a\n      swap1\n      sload\n      swap1\n      0x0100\n      exp\n      swap1\n      div\n      0xffffffffffffffffffffffffffffffffffffffff\n      and\n      dup2\n      jump\t// out\n        /* \"contracts/solidity-example/03_Primitives.sol\":340:364  uint8 public u8 = 2**8-1 */\n    tag_48:\n      0x00\n      0x01\n      swap1\n      sload\n      swap1\n      0x0100\n      exp\n      swap1\n      div\n      0xff\n      and\n      dup2\n      jump\t// out\n        /* \"contracts/solidity-example/03_Primitives.sol\":496:520  int8 public i8p = 2**7-1 */\n    tag_52:\n      0x00\n      0x04\n      swap1\n      sload\n      swap1\n      0x0100\n      exp\n      swap1\n      div\n      0x00\n      signextend\n      dup2\n      jump\t// out\n        /* \"contracts/solidity-example/03_Primitives.sol\":879:900  bytes1 public b1=0xff */\n    tag_55:\n      0x01\n      0x15\n      swap1\n      sload\n      swap1\n      0x0100\n      exp\n      swap1\n      div\n      0xf8\n      shl\n      dup2\n      jump\t// out\n        /* \"contracts/solidity-example/03_Primitives.sol\":560:587  int16 public i16p = 2**15-1 */\n    tag_58:\n      0x00\n      0x06\n      swap1\n      sload\n      swap1\n      0x0100\n      exp\n      swap1\n      div\n      0x01\n      signextend\n      dup2\n      jump\t// out\n        /* \"#utility.yul\":7:96   */\n    tag_60:\n        /* \"#utility.yul\":43:50   */\n      0x00\n        /* \"#utility.yul\":83:89   */\n      0xffff\n        /* \"#utility.yul\":76:81   */\n      dup3\n        /* \"#utility.yul\":72:90   */\n      and\n        /* \"#utility.yul\":61:90   */\n      swap1\n      pop\n        /* \"#utility.yul\":7:96   */\n      swap2\n      swap1\n      pop\n      jump\t// out\n        /* \"#utility.yul\":102:217   */\n    tag_61:\n        /* \"#utility.yul\":187:210   */\n      tag_80\n        /* \"#utility.yul\":204:209   */\n      dup2\n        /* \"#utility.yul\":187:210   */\n      tag_60\n      jump\t// in\n    tag_80:\n        /* \"#utility.yul\":182:185   */\n      dup3\n        /* \"#utility.yul\":175:211   */\n      mstore\n        /* \"#utility.yul\":102:217   */\n      pop\n      pop\n      jump\t// out\n        /* \"#utility.yul\":223:441   */\n    tag_19:\n        /* \"#utility.yul\":314:318   */\n      0x00\n        /* \"#utility.yul\":352:354   */\n      0x20\n        /* \"#utility.yul\":341:350   */\n      dup3\n        /* \"#utility.yul\":337:355   */\n      add\n        /* \"#utility.yul\":329:355   */\n      swap1\n      pop\n        /* \"#utility.yul\":365:434   */\n      tag_82\n        /* \"#utility.yul\":431:432   */\n      0x00\n        /* \"#utility.yul\":420:429   */\n      dup4\n        /* \"#utility.yul\":416:433   */\n      add\n        /* \"#utility.yul\":407:413   */\n      dup5\n        /* \"#utility.yul\":365:434   */\n      tag_61\n      jump\t// in\n    tag_82:\n        /* \"#utility.yul\":223:441   */\n      swap3\n      swap2\n      pop\n      pop\n      jump\t// out\n        /* \"#utility.yul\":447:596   */\n    tag_62:\n        /* \"#utility.yul\":483:490   */\n      0x00\n        /* \"#utility.yul\":523:589   */\n      0xff00000000000000000000000000000000000000000000000000000000000000\n        /* \"#utility.yul\":516:521   */\n      dup3\n        /* \"#utility.yul\":512:590   */\n      and\n        /* \"#utility.yul\":501:590   */\n      swap1\n      pop\n        /* \"#utility.yul\":447:596   */\n      swap2\n      swap1\n      pop\n      jump\t// out\n        /* \"#utility.yul\":602:717   */\n    tag_63:\n        /* \"#utility.yul\":687:710   */\n      tag_85\n        /* \"#utility.yul\":704:709   */\n      dup2\n        /* \"#utility.yul\":687:710   */\n      tag_62\n      jump\t// in\n    tag_85:\n        /* \"#utility.yul\":682:685   */\n      dup3\n        /* \"#utility.yul\":675:711   */\n      mstore\n        /* \"#utility.yul\":602:717   */\n      pop\n      pop\n      jump\t// out\n        /* \"#utility.yul\":723:941   */\n    tag_23:\n        /* \"#utility.yul\":814:818   */\n      0x00\n        /* \"#utility.yul\":852:854   */\n      0x20\n        /* \"#utility.yul\":841:850   */\n      dup3\n        /* \"#utility.yul\":837:855   */\n      add\n        /* \"#utility.yul\":829:855   */\n      swap1\n      pop\n        /* \"#utility.yul\":865:934   */\n      tag_87\n        /* \"#utility.yul\":931:932   */\n      0x00\n        /* \"#utility.yul\":920:929   */\n      dup4\n        /* \"#utility.yul\":916:933   */\n      add\n        /* \"#utility.yul\":907:913   */\n      dup5\n        /* \"#utility.yul\":865:934   */\n      tag_63\n      jump\t// in\n    tag_87:\n        /* \"#utility.yul\":723:941   */\n      swap3\n      swap2\n      pop\n      pop\n      jump\t// out\n        /* \"#utility.yul\":947:1024   */\n    tag_64:\n        /* \"#utility.yul\":984:991   */\n      0x00\n        /* \"#utility.yul\":1013:1018   */\n      dup2\n        /* \"#utility.yul\":1002:1018   */\n      swap1\n      pop\n        /* \"#utility.yul\":947:1024   */\n      swap2\n      swap1\n      pop\n      jump\t// out\n        /* \"#utility.yul\":1030:1148   */\n    tag_65:\n        /* \"#utility.yul\":1117:1141   */\n      tag_90\n        /* \"#utility.yul\":1135:1140   */\n      dup2\n        /* \"#utility.yul\":1117:1141   */\n      tag_64\n      jump\t// in\n    tag_90:\n        /* \"#utility.yul\":1112:1115   */\n      dup3\n        /* \"#utility.yul\":1105:1142   */\n      mstore\n        /* \"#utility.yul\":1030:1148   */\n      pop\n      pop\n      jump\t// out\n        /* \"#utility.yul\":1154:1376   */\n    tag_27:\n        /* \"#utility.yul\":1247:1251   */\n      0x00\n        /* \"#utility.yul\":1285:1287   */\n      0x20\n        /* \"#utility.yul\":1274:1283   */\n      dup3\n        /* \"#utility.yul\":1270:1288   */\n      add\n        /* \"#utility.yul\":1262:1288   */\n      swap1\n      pop\n        /* \"#utility.yul\":1298:1369   */\n      tag_92\n        /* \"#utility.yul\":1366:1367   */\n      0x00\n        /* \"#utility.yul\":1355:1364   */\n      dup4\n        /* \"#utility.yul\":1351:1368   */\n      add\n        /* \"#utility.yul\":1342:1348   */\n      dup5\n        /* \"#utility.yul\":1298:1369   */\n      tag_65\n      jump\t// in\n    tag_92:\n        /* \"#utility.yul\":1154:1376   */\n      swap3\n      swap2\n      pop\n      pop\n      jump\t// out\n        /* \"#utility.yul\":1382:1508   */\n    tag_66:\n        /* \"#utility.yul\":1419:1426   */\n      0x00\n        /* \"#utility.yul\":1459:1501   */\n      0xffffffffffffffffffffffffffffffffffffffff\n        /* \"#utility.yul\":1452:1457   */\n      dup3\n        /* \"#utility.yul\":1448:1502   */\n      and\n        /* \"#utility.yul\":1437:1502   */\n      swap1\n      pop\n        /* \"#utility.yul\":1382:1508   */\n      swap2\n      swap1\n      pop\n      jump\t// out\n        /* \"#utility.yul\":1514:1610   */\n    tag_67:\n        /* \"#utility.yul\":1551:1558   */\n      0x00\n        /* \"#utility.yul\":1580:1604   */\n      tag_95\n        /* \"#utility.yul\":1598:1603   */\n      dup3\n        /* \"#utility.yul\":1580:1604   */\n      tag_66\n      jump\t// in\n    tag_95:\n        /* \"#utility.yul\":1569:1604   */\n      swap1\n      pop\n        /* \"#utility.yul\":1514:1610   */\n      swap2\n      swap1\n      pop\n      jump\t// out\n        /* \"#utility.yul\":1616:1734   */\n    tag_68:\n        /* \"#utility.yul\":1703:1727   */\n      tag_97\n        /* \"#utility.yul\":1721:1726   */\n      dup2\n        /* \"#utility.yul\":1703:1727   */\n      tag_67\n      jump\t// in\n    tag_97:\n        /* \"#utility.yul\":1698:1701   */\n      dup3\n        /* \"#utility.yul\":1691:1728   */\n      mstore\n        /* \"#utility.yul\":1616:1734   */\n      pop\n      pop\n      jump\t// out\n        /* \"#utility.yul\":1740:1962   */\n    tag_31:\n        /* \"#utility.yul\":1833:1837   */\n      0x00\n        /* \"#utility.yul\":1871:1873   */\n      0x20\n        /* \"#utility.yul\":1860:1869   */\n      dup3\n        /* \"#utility.yul\":1856:1874   */\n      add\n        /* \"#utility.yul\":1848:1874   */\n      swap1\n      pop\n        /* \"#utility.yul\":1884:1955   */\n      tag_99\n        /* \"#utility.yul\":1952:1953   */\n      0x00\n        /* \"#utility.yul\":1941:1950   */\n      dup4\n        /* \"#utility.yul\":1937:1954   */\n      add\n        /* \"#utility.yul\":1928:1934   */\n      dup5\n        /* \"#utility.yul\":1884:1955   */\n      tag_68\n      jump\t// in\n    tag_99:\n        /* \"#utility.yul\":1740:1962   */\n      swap3\n      swap2\n      pop\n      pop\n      jump\t// out\n        /* \"#utility.yul\":1968:2058   */\n    tag_69:\n        /* \"#utility.yul\":2003:2010   */\n      0x00\n        /* \"#utility.yul\":2046:2051   */\n      dup2\n        /* \"#utility.yul\":2043:2044   */\n      0x01\n        /* \"#utility.yul\":2032:2052   */\n      signextend\n        /* \"#utility.yul\":2021:2052   */\n      swap1\n      pop\n        /* \"#utility.yul\":1968:2058   */\n      swap2\n      swap1\n      pop\n      jump\t// out\n        /* \"#utility.yul\":2064:2176   */\n    tag_70:\n        /* \"#utility.yul\":2147:2169   */\n      tag_102\n        /* \"#utility.yul\":2163:2168   */\n      dup2\n        /* \"#utility.yul\":2147:2169   */\n      tag_69\n      jump\t// in\n    tag_102:\n        /* \"#utility.yul\":2142:2145   */\n      dup3\n        /* \"#utility.yul\":2135:2170   */\n      mstore\n        /* \"#utility.yul\":2064:2176   */\n      pop\n      pop\n      jump\t// out\n        /* \"#utility.yul\":2182:2396   */\n    tag_35:\n        /* \"#utility.yul\":2271:2275   */\n      0x00\n        /* \"#utility.yul\":2309:2311   */\n      0x20\n        /* \"#utility.yul\":2298:2307   */\n      dup3\n        /* \"#utility.yul\":2294:2312   */\n      add\n        /* \"#utility.yul\":2286:2312   */\n      swap1\n      pop\n        /* \"#utility.yul\":2322:2389   */\n      tag_104\n        /* \"#utility.yul\":2386:2387   */\n      0x00\n        /* \"#utility.yul\":2375:2384   */\n      dup4\n        /* \"#utility.yul\":2371:2388   */\n      add\n        /* \"#utility.yul\":2362:2368   */\n      dup5\n        /* \"#utility.yul\":2322:2389   */\n      tag_70\n      jump\t// in\n    tag_104:\n        /* \"#utility.yul\":2182:2396   */\n      swap3\n      swap2\n      pop\n      pop\n      jump\t// out\n        /* \"#utility.yul\":2402:2492   */\n    tag_71:\n        /* \"#utility.yul\":2436:2443   */\n      0x00\n        /* \"#utility.yul\":2479:2484   */\n      dup2\n        /* \"#utility.yul\":2472:2485   */\n      iszero\n        /* \"#utility.yul\":2465:2486   */\n      iszero\n        /* \"#utility.yul\":2454:2486   */\n      swap1\n      pop\n        /* \"#utility.yul\":2402:2492   */\n      swap2\n      swap1\n      pop\n      jump\t// out\n        /* \"#utility.yul\":2498:2607   */\n    tag_72:\n        /* \"#utility.yul\":2579:2600   */\n      tag_107\n        /* \"#utility.yul\":2594:2599   */\n      dup2\n        /* \"#utility.yul\":2579:2600   */\n      tag_71\n      jump\t// in\n    tag_107:\n        /* \"#utility.yul\":2574:2577   */\n      dup3\n        /* \"#utility.yul\":2567:2601   */\n      mstore\n        /* \"#utility.yul\":2498:2607   */\n      pop\n      pop\n      jump\t// out\n        /* \"#utility.yul\":2613:2823   */\n    tag_39:\n        /* \"#utility.yul\":2700:2704   */\n      0x00\n        /* \"#utility.yul\":2738:2740   */\n      0x20\n        /* \"#utility.yul\":2727:2736   */\n      dup3\n        /* \"#utility.yul\":2723:2741   */\n      add\n        /* \"#utility.yul\":2715:2741   */\n      swap1\n      pop\n        /* \"#utility.yul\":2751:2816   */\n      tag_109\n        /* \"#utility.yul\":2813:2814   */\n      0x00\n        /* \"#utility.yul\":2802:2811   */\n      dup4\n        /* \"#utility.yul\":2798:2815   */\n      add\n        /* \"#utility.yul\":2789:2795   */\n      dup5\n        /* \"#utility.yul\":2751:2816   */\n      tag_72\n      jump\t// in\n    tag_109:\n        /* \"#utility.yul\":2613:2823   */\n      swap3\n      swap2\n      pop\n      pop\n      jump\t// out\n        /* \"#utility.yul\":2829:2918   */\n    tag_73:\n        /* \"#utility.yul\":2863:2870   */\n      0x00\n        /* \"#utility.yul\":2906:2911   */\n      dup2\n        /* \"#utility.yul\":2903:2904   */\n      0x00\n        /* \"#utility.yul\":2892:2912   */\n      signextend\n        /* \"#utility.yul\":2881:2912   */\n      swap1\n      pop\n        /* \"#utility.yul\":2829:2918   */\n      swap2\n      swap1\n      pop\n      jump\t// out\n        /* \"#utility.yul\":2924:3033   */\n    tag_74:\n        /* \"#utility.yul\":3005:3026   */\n      tag_112\n        /* \"#utility.yul\":3020:3025   */\n      dup2\n        /* \"#utility.yul\":3005:3026   */\n      tag_73\n      jump\t// in\n    tag_112:\n        /* \"#utility.yul\":3000:3003   */\n      dup3\n        /* \"#utility.yul\":2993:3027   */\n      mstore\n        /* \"#utility.yul\":2924:3033   */\n      pop\n      pop\n      jump\t// out\n        /* \"#utility.yul\":3039:3249   */\n    tag_43:\n        /* \"#utility.yul\":3126:3130   */\n      0x00\n        /* \"#utility.yul\":3164:3166   */\n      0x20\n        /* \"#utility.yul\":3153:3162   */\n      dup3\n        /* \"#utility.yul\":3149:3167   */\n      add\n        /* \"#utility.yul\":3141:3167   */\n      swap1\n      pop\n        /* \"#utility.yul\":3177:3242   */\n      tag_114\n        /* \"#utility.yul\":3239:3240   */\n      0x00\n        /* \"#utility.yul\":3228:3237   */\n      dup4\n        /* \"#utility.yul\":3224:3241   */\n      add\n        /* \"#utility.yul\":3215:3221   */\n      dup5\n        /* \"#utility.yul\":3177:3242   */\n      tag_74\n      jump\t// in\n    tag_114:\n        /* \"#utility.yul\":3039:3249   */\n      swap3\n      swap2\n      pop\n      pop\n      jump\t// out\n        /* \"#utility.yul\":3255:3341   */\n    tag_75:\n        /* \"#utility.yul\":3290:3297   */\n      0x00\n        /* \"#utility.yul\":3330:3334   */\n      0xff\n        /* \"#utility.yul\":3323:3328   */\n      dup3\n        /* \"#utility.yul\":3319:3335   */\n      and\n        /* \"#utility.yul\":3308:3335   */\n      swap1\n      pop\n        /* \"#utility.yul\":3255:3341   */\n      swap2\n      swap1\n      pop\n      jump\t// out\n        /* \"#utility.yul\":3347:3459   */\n    tag_76:\n        /* \"#utility.yul\":3430:3452   */\n      tag_117\n        /* \"#utility.yul\":3446:3451   */\n      dup2\n        /* \"#utility.yul\":3430:3452   */\n      tag_75\n      jump\t// in\n    tag_117:\n        /* \"#utility.yul\":3425:3428   */\n      dup3\n        /* \"#utility.yul\":3418:3453   */\n      mstore\n        /* \"#utility.yul\":3347:3459   */\n      pop\n      pop\n      jump\t// out\n        /* \"#utility.yul\":3465:3679   */\n    tag_50:\n        /* \"#utility.yul\":3554:3558   */\n      0x00\n        /* \"#utility.yul\":3592:3594   */\n      0x20\n        /* \"#utility.yul\":3581:3590   */\n      dup3\n        /* \"#utility.yul\":3577:3595   */\n      add\n        /* \"#utility.yul\":3569:3595   */\n      swap1\n      pop\n        /* \"#utility.yul\":3605:3672   */\n      tag_119\n        /* \"#utility.yul\":3669:3670   */\n      0x00\n        /* \"#utility.yul\":3658:3667   */\n      dup4\n        /* \"#utility.yul\":3654:3671   */\n      add\n        /* \"#utility.yul\":3645:3651   */\n      dup5\n        /* \"#utility.yul\":3605:3672   */\n      tag_76\n      jump\t// in\n    tag_119:\n        /* \"#utility.yul\":3465:3679   */\n      swap3\n      swap2\n      pop\n      pop\n      jump\t// out\n\n    auxdata: 0xa26469706673582212200a7889190393f419da972cf2ede4fc06846b0c96549fc02c5340351d3af66d4e64736f6c63430008130033\n}\n",
				"bytecode": {
					"linkReferences": {},
					"object": "608060405260ff600060016101000a81548160ff021916908360ff16021790555061ffff600060026101000a81548161ffff021916908361ffff160217905550607f600060046101000a81548160ff021916908360000b60ff1602179055507fffffffffffffffffffffffffffffffffffffffffffffffffffffffffffffff81600060056101000a81548160ff021916908360000b60ff160217905550617fff600060066101000a81548161ffff021916908360010b61ffff1602179055507fffffffffffffffffffffffffffffffffffffffffffffffffffffffffffff8001600060086101000a81548161ffff021916908360010b61ffff160217905550735b38da6a701c568545dcfcb03fcb875f56beddc4600160006101000a81548173ffffffffffffffffffffffffffffffffffffffff021916908373ffffffffffffffffffffffffffffffffffffffff16021790555060ff60f81b600160156101000a81548160ff021916908360f81c021790555034801561017e57600080fd5b5061054c8061018e6000396000f3fe608060405234801561001057600080fd5b50600436106100b45760003560e01c806367fcc1381161007157806367fcc1381461016d578063767800de1461018b578063ab3a58a3146101a9578063cfee9f8b146101c7578063ee495002146101e5578063fb2d288d14610203576100b4565b80630a6b4e06146100b95780630a9ae69d146100d75780630add6ef2146100f5578063119552a11461011357806327ae3f34146101315780634df7e3d01461014f575b600080fd5b6100c1610221565b6040516100ce919061033a565b60405180910390f35b6100df610235565b6040516100ec9190610390565b60405180910390f35b6100fd610248565b60405161010a91906103c4565b60405180910390f35b61011b61024e565b6040516101289190610420565b60405180910390f35b610139610274565b6040516101469190610457565b60405180910390f35b610157610287565b604051610164919061048d565b60405180910390f35b610175610298565b60405161018291906104c4565b60405180910390f35b6101936102ab565b6040516101a09190610420565b60405180910390f35b6101b16102d1565b6040516101be91906104fb565b60405180910390f35b6101cf6102e4565b6040516101dc91906104c4565b60405180910390f35b6101ed6102f7565b6040516101fa9190610390565b60405180910390f35b61020b61030a565b6040516102189190610457565b60405180910390f35b600060029054906101000a900461ffff1681565b600160149054906101000a900460f81b81565b60025481565b600160009054906101000a900473ffffffffffffffffffffffffffffffffffffffff1681565b600060089054906101000a900460010b81565b60008054906101000a900460ff1681565b600060059054906101000a900460000b81565b6000600a9054906101000a900473ffffffffffffffffffffffffffffffffffffffff1681565b600060019054906101000a900460ff1681565b600060049054906101000a900460000b81565b600160159054906101000a900460f81b81565b600060069054906101000a900460010b81565b600061ffff82169050919050565b6103348161031d565b82525050565b600060208201905061034f600083018461032b565b92915050565b60007fff0000000000000000000000000000000000000000000000000000000000000082169050919050565b61038a81610355565b82525050565b60006020820190506103a56000830184610381565b92915050565b6000819050919050565b6103be816103ab565b82525050565b60006020820190506103d960008301846103b5565b92915050565b600073ffffffffffffffffffffffffffffffffffffffff82169050919050565b600061040a826103df565b9050919050565b61041a816103ff565b82525050565b60006020820190506104356000830184610411565b92915050565b60008160010b9050919050565b6104518161043b565b82525050565b600060208201905061046c6000830184610448565b92915050565b60008115159050919050565b61048781610472565b82525050565b60006020820190506104a2600083018461047e565b92915050565b60008160000b9050919050565b6104be816104a8565b82525050565b60006020820190506104d960008301846104b5565b92915050565b600060ff82169050919050565b6104f5816104df565b82525050565b600060208201905061051060008301846104ec565b9291505056fea26469706673582212200a7889190393f419da972cf2ede4fc06846b0c96549fc02c5340351d3af66d4e64736f6c63430008130033",
					"opcodes": "PUSH1 0x80 PUSH1 0x40 MSTORE PUSH1 0xFF PUSH1 0x0 PUSH1 0x1 PUSH2 0x100 EXP DUP2 SLOAD DUP2 PUSH1 0xFF MUL NOT AND SWAP1 DUP4 PUSH1 0xFF AND MUL OR SWAP1 SSTORE POP PUSH2 0xFFFF PUSH1 0x0 PUSH1 0x2 PUSH2 0x100 EXP DUP2 SLOAD DUP2 PUSH2 0xFFFF MUL NOT AND SWAP1 DUP4 PUSH2 0xFFFF AND MUL OR SWAP1 SSTORE POP PUSH1 0x7F PUSH1 0x0 PUSH1 0x4 PUSH2 0x100 EXP DUP2 SLOAD DUP2 PUSH1 0xFF MUL NOT AND SWAP1 DUP4 PUSH1 0x0 SIGNEXTEND PUSH1 0xFF AND MUL OR SWAP1 SSTORE POP PUSH32 0xFFFFFFFFFFFFFFFFFFFFFFFFFFFFFFFFFFFFFFFFFFFFFFFFFFFFFFFFFFFFFF81 PUSH1 0x0 PUSH1 0x5 PUSH2 0x100 EXP DUP2 SLOAD DUP2 PUSH1 0xFF MUL NOT AND SWAP1 DUP4 PUSH1 0x0 SIGNEXTEND PUSH1 0xFF AND MUL OR SWAP1 SSTORE POP PUSH2 0x7FFF PUSH1 0x0 PUSH1 0x6 PUSH2 0x100 EXP DUP2 SLOAD DUP2 PUSH2 0xFFFF MUL NOT AND SWAP1 DUP4 PUSH1 0x1 SIGNEXTEND PUSH2 0xFFFF AND MUL OR SWAP1 SSTORE POP PUSH32 0xFFFFFFFFFFFFFFFFFFFFFFFFFFFFFFFFFFFFFFFFFFFFFFFFFFFFFFFFFFFF8001 PUSH1 0x0 PUSH1 0x8 PUSH2 0x100 EXP DUP2 SLOAD DUP2 PUSH2 0xFFFF MUL NOT AND SWAP1 DUP4 PUSH1 0x1 SIGNEXTEND PUSH2 0xFFFF AND MUL OR SWAP1 SSTORE POP PUSH20 0x5B38DA6A701C568545DCFCB03FCB875F56BEDDC4 PUSH1 0x1 PUSH1 0x0 PUSH2 0x100 EXP DUP2 SLOAD DUP2 PUSH20 0xFFFFFFFFFFFFFFFFFFFFFFFFFFFFFFFFFFFFFFFF MUL NOT AND SWAP1 DUP4 PUSH20 0xFFFFFFFFFFFFFFFFFFFFFFFFFFFFFFFFFFFFFFFF AND MUL OR SWAP1 SSTORE POP PUSH1 0xFF PUSH1 0xF8 SHL PUSH1 0x1 PUSH1 0x15 PUSH2 0x100 EXP DUP2 SLOAD DUP2 PUSH1 0xFF MUL NOT AND SWAP1 DUP4 PUSH1 0xF8 SHR MUL OR SWAP1 SSTORE POP CALLVALUE DUP1 ISZERO PUSH2 0x17E JUMPI PUSH1 0x0 DUP1 REVERT JUMPDEST POP PUSH2 0x54C DUP1 PUSH2 0x18E PUSH1 0x0 CODECOPY PUSH1 0x0 RETURN INVALID PUSH1 0x80 PUSH1 0x40 MSTORE CALLVALUE DUP1 ISZERO PUSH2 0x10 JUMPI PUSH1 0x0 DUP1 REVERT JUMPDEST POP PUSH1 0x4 CALLDATASIZE LT PUSH2 0xB4 JUMPI PUSH1 0x0 CALLDATALOAD PUSH1 0xE0 SHR DUP1 PUSH4 0x67FCC138 GT PUSH2 0x71 JUMPI DUP1 PUSH4 0x67FCC138 EQ PUSH2 0x16D JUMPI DUP1 PUSH4 0x767800DE EQ PUSH2 0x18B JUMPI DUP1 PUSH4 0xAB3A58A3 EQ PUSH2 0x1A9 JUMPI DUP1 PUSH4 0xCFEE9F8B EQ PUSH2 0x1C7 JUMPI DUP1 PUSH4 0xEE495002 EQ PUSH2 0x1E5 JUMPI DUP1 PUSH4 0xFB2D288D EQ PUSH2 0x203 JUMPI PUSH2 0xB4 JUMP JUMPDEST DUP1 PUSH4 0xA6B4E06 EQ PUSH2 0xB9 JUMPI DUP1 PUSH4 0xA9AE69D EQ PUSH2 0xD7 JUMPI DUP1 PUSH4 0xADD6EF2 EQ PUSH2 0xF5 JUMPI DUP1 PUSH4 0x119552A1 EQ PUSH2 0x113 JUMPI DUP1 PUSH4 0x27AE3F34 EQ PUSH2 0x131 JUMPI DUP1 PUSH4 0x4DF7E3D0 EQ PUSH2 0x14F JUMPI JUMPDEST PUSH1 0x0 DUP1 REVERT JUMPDEST PUSH2 0xC1 PUSH2 0x221 JUMP JUMPDEST PUSH1 0x40 MLOAD PUSH2 0xCE SWAP2 SWAP1 PUSH2 0x33A JUMP JUMPDEST PUSH1 0x40 MLOAD DUP1 SWAP2 SUB SWAP1 RETURN JUMPDEST PUSH2 0xDF PUSH2 0x235 JUMP JUMPDEST PUSH1 0x40 MLOAD PUSH2 0xEC SWAP2 SWAP1 PUSH2 0x390 JUMP JUMPDEST PUSH1 0x40 MLOAD DUP1 SWAP2 SUB SWAP1 RETURN JUMPDEST PUSH2 0xFD PUSH2 0x248 JUMP JUMPDEST PUSH1 0x40 MLOAD PUSH2 0x10A SWAP2 SWAP1 PUSH2 0x3C4 JUMP JUMPDEST PUSH1 0x40 MLOAD DUP1 SWAP2 SUB SWAP1 RETURN JUMPDEST PUSH2 0x11B PUSH2 0x24E JUMP JUMPDEST PUSH1 0x40 MLOAD PUSH2 0x128 SWAP2 SWAP1 PUSH2 0x420 JUMP JUMPDEST PUSH1 0x40 MLOAD DUP1 SWAP2 SUB SWAP1 RETURN JUMPDEST PUSH2 0x139 PUSH2 0x274 JUMP JUMPDEST PUSH1 0x40 MLOAD PUSH2 0x146 SWAP2 SWAP1 PUSH2 0x457 JUMP JUMPDEST PUSH1 0x40 MLOAD DUP1 SWAP2 SUB SWAP1 RETURN JUMPDEST PUSH2 0x157 PUSH2 0x287 JUMP JUMPDEST PUSH1 0x40 MLOAD PUSH2 0x164 SWAP2 SWAP1 PUSH2 0x48D JUMP JUMPDEST PUSH1 0x40 MLOAD DUP1 SWAP2 SUB SWAP1 RETURN JUMPDEST PUSH2 0x175 PUSH2 0x298 JUMP JUMPDEST PUSH1 0x40 MLOAD PUSH2 0x182 SWAP2 SWAP1 PUSH2 0x4C4 JUMP JUMPDEST PUSH1 0x40 MLOAD DUP1 SWAP2 SUB SWAP1 RETURN JUMPDEST PUSH2 0x193 PUSH2 0x2AB JUMP JUMPDEST PUSH1 0x40 MLOAD PUSH2 0x1A0 SWAP2 SWAP1 PUSH2 0x420 JUMP JUMPDEST PUSH1 0x40 MLOAD DUP1 SWAP2 SUB SWAP1 RETURN JUMPDEST PUSH2 0x1B1 PUSH2 0x2D1 JUMP JUMPDEST PUSH1 0x40 MLOAD PUSH2 0x1BE SWAP2 SWAP1 PUSH2 0x4FB JUMP JUMPDEST PUSH1 0x40 MLOAD DUP1 SWAP2 SUB SWAP1 RETURN JUMPDEST PUSH2 0x1CF PUSH2 0x2E4 JUMP JUMPDEST PUSH1 0x40 MLOAD PUSH2 0x1DC SWAP2 SWAP1 PUSH2 0x4C4 JUMP JUMPDEST PUSH1 0x40 MLOAD DUP1 SWAP2 SUB SWAP1 RETURN JUMPDEST PUSH2 0x1ED PUSH2 0x2F7 JUMP JUMPDEST PUSH1 0x40 MLOAD PUSH2 0x1FA SWAP2 SWAP1 PUSH2 0x390 JUMP JUMPDEST PUSH1 0x40 MLOAD DUP1 SWAP2 SUB SWAP1 RETURN JUMPDEST PUSH2 0x20B PUSH2 0x30A JUMP JUMPDEST PUSH1 0x40 MLOAD PUSH2 0x218 SWAP2 SWAP1 PUSH2 0x457 JUMP JUMPDEST PUSH1 0x40 MLOAD DUP1 SWAP2 SUB SWAP1 RETURN JUMPDEST PUSH1 0x0 PUSH1 0x2 SWAP1 SLOAD SWAP1 PUSH2 0x100 EXP SWAP1 DIV PUSH2 0xFFFF AND DUP2 JUMP JUMPDEST PUSH1 0x1 PUSH1 0x14 SWAP1 SLOAD SWAP1 PUSH2 0x100 EXP SWAP1 DIV PUSH1 0xF8 SHL DUP2 JUMP JUMPDEST PUSH1 0x2 SLOAD DUP2 JUMP JUMPDEST PUSH1 0x1 PUSH1 0x0 SWAP1 SLOAD SWAP1 PUSH2 0x100 EXP SWAP1 DIV PUSH20 0xFFFFFFFFFFFFFFFFFFFFFFFFFFFFFFFFFFFFFFFF AND DUP2 JUMP JUMPDEST PUSH1 0x0 PUSH1 0x8 SWAP1 SLOAD SWAP1 PUSH2 0x100 EXP SWAP1 DIV PUSH1 0x1 SIGNEXTEND DUP2 JUMP JUMPDEST PUSH1 0x0 DUP1 SLOAD SWAP1 PUSH2 0x100 EXP SWAP1 DIV PUSH1 0xFF AND DUP2 JUMP JUMPDEST PUSH1 0x0 PUSH1 0x5 SWAP1 SLOAD SWAP1 PUSH2 0x100 EXP SWAP1 DIV PUSH1 0x0 SIGNEXTEND DUP2 JUMP JUMPDEST PUSH1 0x0 PUSH1 0xA SWAP1 SLOAD SWAP1 PUSH2 0x100 EXP SWAP1 DIV PUSH20 0xFFFFFFFFFFFFFFFFFFFFFFFFFFFFFFFFFFFFFFFF AND DUP2 JUMP JUMPDEST PUSH1 0x0 PUSH1 0x1 SWAP1 SLOAD SWAP1 PUSH2 0x100 EXP SWAP1 DIV PUSH1 0xFF AND DUP2 JUMP JUMPDEST PUSH1 0x0 PUSH1 0x4 SWAP1 SLOAD SWAP1 PUSH2 0x100 EXP SWAP1 DIV PUSH1 0x0 SIGNEXTEND DUP2 JUMP JUMPDEST PUSH1 0x1 PUSH1 0x15 SWAP1 SLOAD SWAP1 PUSH2 0x100 EXP SWAP1 DIV PUSH1 0xF8 SHL DUP2 JUMP JUMPDEST PUSH1 0x0 PUSH1 0x6 SWAP1 SLOAD SWAP1 PUSH2 0x100 EXP SWAP1 DIV PUSH1 0x1 SIGNEXTEND DUP2 JUMP JUMPDEST PUSH1 0x0 PUSH2 0xFFFF DUP3 AND SWAP1 POP SWAP2 SWAP1 POP JUMP JUMPDEST PUSH2 0x334 DUP2 PUSH2 0x31D JUMP JUMPDEST DUP3 MSTORE POP POP JUMP JUMPDEST PUSH1 0x0 PUSH1 0x20 DUP3 ADD SWAP1 POP PUSH2 0x34F PUSH1 0x0 DUP4 ADD DUP5 PUSH2 0x32B JUMP JUMPDEST SWAP3 SWAP2 POP POP JUMP JUMPDEST PUSH1 0x0 PUSH32 0xFF00000000000000000000000000000000000000000000000000000000000000 DUP3 AND SWAP1 POP SWAP2 SWAP1 POP JUMP JUMPDEST PUSH2 0x38A DUP2 PUSH2 0x355 JUMP JUMPDEST DUP3 MSTORE POP POP JUMP JUMPDEST PUSH1 0x0 PUSH1 0x20 DUP3 ADD SWAP1 POP PUSH2 0x3A5 PUSH1 0x0 DUP4 ADD DUP5 PUSH2 0x381 JUMP JUMPDEST SWAP3 SWAP2 POP POP JUMP JUMPDEST PUSH1 0x0 DUP2 SWAP1 POP SWAP2 SWAP1 POP JUMP JUMPDEST PUSH2 0x3BE DUP2 PUSH2 0x3AB JUMP JUMPDEST DUP3 MSTORE POP POP JUMP JUMPDEST PUSH1 0x0 PUSH1 0x20 DUP3 ADD SWAP1 POP PUSH2 0x3D9 PUSH1 0x0 DUP4 ADD DUP5 PUSH2 0x3B5 JUMP JUMPDEST SWAP3 SWAP2 POP POP JUMP JUMPDEST PUSH1 0x0 PUSH20 0xFFFFFFFFFFFFFFFFFFFFFFFFFFFFFFFFFFFFFFFF DUP3 AND SWAP1 POP SWAP2 SWAP1 POP JUMP JUMPDEST PUSH1 0x0 PUSH2 0x40A DUP3 PUSH2 0x3DF JUMP JUMPDEST SWAP1 POP SWAP2 SWAP1 POP JUMP JUMPDEST PUSH2 0x41A DUP2 PUSH2 0x3FF JUMP JUMPDEST DUP3 MSTORE POP POP JUMP JUMPDEST PUSH1 0x0 PUSH1 0x20 DUP3 ADD SWAP1 POP PUSH2 0x435 PUSH1 0x0 DUP4 ADD DUP5 PUSH2 0x411 JUMP JUMPDEST SWAP3 SWAP2 POP POP JUMP JUMPDEST PUSH1 0x0 DUP2 PUSH1 0x1 SIGNEXTEND SWAP1 POP SWAP2 SWAP1 POP JUMP JUMPDEST PUSH2 0x451 DUP2 PUSH2 0x43B JUMP JUMPDEST DUP3 MSTORE POP POP JUMP JUMPDEST PUSH1 0x0 PUSH1 0x20 DUP3 ADD SWAP1 POP PUSH2 0x46C PUSH1 0x0 DUP4 ADD DUP5 PUSH2 0x448 JUMP JUMPDEST SWAP3 SWAP2 POP POP JUMP JUMPDEST PUSH1 0x0 DUP2 ISZERO ISZERO SWAP1 POP SWAP2 SWAP1 POP JUMP JUMPDEST PUSH2 0x487 DUP2 PUSH2 0x472 JUMP JUMPDEST DUP3 MSTORE POP POP JUMP JUMPDEST PUSH1 0x0 PUSH1 0x20 DUP3 ADD SWAP1 POP PUSH2 0x4A2 PUSH1 0x0 DUP4 ADD DUP5 PUSH2 0x47E JUMP JUMPDEST SWAP3 SWAP2 POP POP JUMP JUMPDEST PUSH1 0x0 DUP2 PUSH1 0x0 SIGNEXTEND SWAP1 POP SWAP2 SWAP1 POP JUMP JUMPDEST PUSH2 0x4BE DUP2 PUSH2 0x4A8 JUMP JUMPDEST DUP3 MSTORE POP POP JUMP JUMPDEST PUSH1 0x0 PUSH1 0x20 DUP3 ADD SWAP1 POP PUSH2 0x4D9 PUSH1 0x0 DUP4 ADD DUP5 PUSH2 0x4B5 JUMP JUMPDEST SWAP3 SWAP2 POP POP JUMP JUMPDEST PUSH1 0x0 PUSH1 0xFF DUP3 AND SWAP1 POP SWAP2 SWAP1 POP JUMP JUMPDEST PUSH2 0x4F5 DUP2 PUSH2 0x4DF JUMP JUMPDEST DUP3 MSTORE POP POP JUMP JUMPDEST PUSH1 0x0 PUSH1 0x20 DUP3 ADD SWAP1 POP PUSH2 0x510 PUSH1 0x0 DUP4 ADD DUP5 PUSH2 0x4EC JUMP JUMPDEST SWAP3 SWAP2 POP POP JUMP INVALID LOG2 PUSH5 0x6970667358 0x22 SLT KECCAK256 EXP PUSH25 0x89190393F419DA972CF2EDE4FC06846B0C96549FC02C534035 SAR GASPRICE 0xF6 PUSH14 0x4E64736F6C634300081300330000 "
				},
				"gasEstimates": {
					"creation": {
						"codeDepositCost": "271200",
						"executionCost": "194836",
						"totalCost": "466036"
					},
					"external": {
						"a1()": "2581",
						"addr()": "2586",
						"b()": "2579",
						"b1()": "2609",
						"b2()": "2474",
						"bb()": "2544",
						"i16n()": "2614",
						"i16p()": "2635",
						"i8n()": "2525",
						"i8p()": "2591",
						"u16()": "2522",
						"u8()": "2565"
					}
				},
				"methodIdentifiers": {
					"a1()": "119552a1",
					"addr()": "767800de",
					"b()": "4df7e3d0",
					"b1()": "ee495002",
					"b2()": "0add6ef2",
					"bb()": "0a9ae69d",
					"i16n()": "27ae3f34",
					"i16p()": "fb2d288d",
					"i8n()": "67fcc138",
					"i8p()": "cfee9f8b",
					"u16()": "0a6b4e06",
					"u8()": "ab3a58a3"
				}
			},
			"storageLayout": {
				"storage": [
					{
						"astId": 3,
						"contract": "contracts/solidity-example/03_Primitives.sol:Primitives_data_type",
						"label": "b",
						"offset": 0,
						"slot": "0",
						"type": "t_bool"
					},
					{
						"astId": 10,
						"contract": "contracts/solidity-example/03_Primitives.sol:Primitives_data_type",
						"label": "u8",
						"offset": 1,
						"slot": "0",
						"type": "t_uint8"
					},
					{
						"astId": 17,
						"contract": "contracts/solidity-example/03_Primitives.sol:Primitives_data_type",
						"label": "u16",
						"offset": 2,
						"slot": "0",
						"type": "t_uint16"
					},
					{
						"astId": 24,
						"contract": "contracts/solidity-example/03_Primitives.sol:Primitives_data_type",
						"label": "i8p",
						"offset": 4,
						"slot": "0",
						"type": "t_int8"
					},
					{
						"astId": 33,
						"contract": "contracts/solidity-example/03_Primitives.sol:Primitives_data_type",
						"label": "i8n",
						"offset": 5,
						"slot": "0",
						"type": "t_int8"
					},
					{
						"astId": 40,
						"contract": "contracts/solidity-example/03_Primitives.sol:Primitives_data_type",
						"label": "i16p",
						"offset": 6,
						"slot": "0",
						"type": "t_int16"
					},
					{
						"astId": 49,
						"contract": "contracts/solidity-example/03_Primitives.sol:Primitives_data_type",
						"label": "i16n",
						"offset": 8,
						"slot": "0",
						"type": "t_int16"
					},
					{
						"astId": 51,
						"contract": "contracts/solidity-example/03_Primitives.sol:Primitives_data_type",
						"label": "addr",
						"offset": 10,
						"slot": "0",
						"type": "t_address"
					},
					{
						"astId": 54,
						"contract": "contracts/solidity-example/03_Primitives.sol:Primitives_data_type",
						"label": "a1",
						"offset": 0,
						"slot": "1",
						"type": "t_address"
					},
					{
						"astId": 56,
						"contract": "contracts/solidity-example/03_Primitives.sol:Primitives_data_type",
						"label": "bb",
						"offset": 20,
						"slot": "1",
						"type": "t_bytes1"
					},
					{
						"astId": 59,
						"contract": "contracts/solidity-example/03_Primitives.sol:Primitives_data_type",
						"label": "b1",
						"offset": 21,
						"slot": "1",
						"type": "t_bytes1"
					},
					{
						"astId": 61,
						"contract": "contracts/solidity-example/03_Primitives.sol:Primitives_data_type",
						"label": "b2",
						"offset": 0,
						"slot": "2",
						"type": "t_bytes32"
					}
				],
				"types": {
					"t_address": {
						"encoding": "inplace",
						"label": "address",
						"numberOfBytes": "20"
					},
					"t_bool": {
						"encoding": "inplace",
						"label": "bool",
						"numberOfBytes": "1"
					},
					"t_bytes1": {
						"encoding": "inplace",
						"label": "bytes1",
						"numberOfBytes": "1"
					},
					"t_bytes32": {
						"encoding": "inplace",
						"label": "bytes32",
						"numberOfBytes": "32"
					},
					"t_int16": {
						"encoding": "inplace",
						"label": "int16",
						"numberOfBytes": "2"
					},
					"t_int8": {
						"encoding": "inplace",
						"label": "int8",
						"numberOfBytes": "1"
					},
					"t_uint16": {
						"encoding": "inplace",
						"label": "uint16",
						"numberOfBytes": "2"
					},
					"t_uint8": {
						"encoding": "inplace",
						"label": "uint8",
						"numberOfBytes": "1"
					}
				}
			},
			"userdoc": {
				"kind": "user",
				"methods": {},
				"version": 1
			}
		}
	}
}